:100000009DEF03F00000000000EF00F00000000092
:0A0010000000000000000000F3D71C
:0E001C00030E0D6E0D2EFED700000000120028
:10002A00560E0C6EB50E0D6E0D2EFED70C2EFCD78D
:06003A00000000001200AE
:0E004000C70E0D6E0D2EFED700000000120040
:0E004E00026A016A006A086A036A000E120064
:10005C000134083609360450085E0550D8A0053C1A
:10006C00095E003601360F0E0C6E01340836093667
:10007C00045000A006D0085E0550D8A0053C095ECF
:10008C0005D008260550D8B0053C092600360136A7
:10009C000C2EEBD700B006D0045008260550D8B073
:0800AC00053C092600001200CA
:0800B4000AAE029E000E1200CC
:1000BC0037BE02D0839E01D0838E37BC02D0839C86
:1000CC0001D0838C37BA02D0839A01D0838A37B897
:1000DC0002D0839801D0838830B002D0838401D0C1
:1000EC008394838695DF839637B602D0839E01D0A6
:1000FC00838E37B402D0839C01D0838C37B202D06C
:10010C00839A01D0838A37B002D0839801D0838838
:10011C0030B002D0838401D08394838679DF8396B8
:0C012C0030A002D07CDF01D085DF120083
:100138000B840BAEA7EF00F0010E036E026A016A92
:0A014800006A0A360232FF0E1200B0
:100152000B800BAEB5EF00F0026A0AAEFF0E026E24
:0C016200016E006E0A360232FF0E120021
:10016E000B820BAEC1EF00F00368026801680068F5
:08017E000A360232FF0E1200E6
:0C018600309036C037F097DF3080120058
:100192000450000A08E10550000A05E1FF0E006E56
:1001A2007F0E016E57D00D6A096A086A015000106D
:1001B200D8B4000C015005180A6E0ABE0D1E0B6A57
:1001C20005AE05D0041E051E042AD8B4052A01AEC8
:1001D20005D0001E011E002AD8B4012A01500510C4
:1001E2000A6E0ABE10D039DF0BB020D00DAE000C63
:1001F200001E011E002AD8B4012A081E091E082A60
:10020200D8B4092A000C05AE0DD001BE07D00150AA
:10021200096E0050086E016A006AE8D7016A006A36
:10022200002A000C011E001E0B2ADDD7082AD8B4B2
:10023200092A0450085CD8A4D9D70550095CD8A46F
:10024200D5D7096A086A002AD8B4012A01AECED7E6
:060252000000FF0C120089
:100258000C6A0E6A0250D8A445EF01F001C002F002
:1002680000C001F0006A0E860250D8A445EF01F0E4
:1002780001C002F0016A0E960E880250D8B457EFFA
:1002880001F00E50035ED8A4D8A05CEF01F0D8901E
:1002980002BE61EF01F0003601360236032E4CEF44
:1002A80001F05CEF01F0010E0C6ECDDE64EF01F0A1
:1002B800020E0C6E3DDF64EF01F0040E0C6EF6DEEC
:0202C800120022
:0E02CA00570E0D6E0D2EFED700000000120024
:1002D80000C008F00150006E016A026A036A0B6AE6
:1002E8000C6A016A026A036A960E036E0A6A00AE15
:1002F80084EF01F0081E001E082AD8B4002A0A8ECE
:1003080000C001F008C000F0086A026AA1DF12000C
:100318000900F5CFE6FF0006FBE10106F9E112004E
:10032800959695949598959A959C959E8396839481
:10033800839E839C839A839874DE73DE72DE838A3D
:100348008388838667DE83966CDE838663DE839686
:1003580068DE83865FDE839664DE839883865ADE52
:1003680083965FDE838656DE8396839A838E8386A2
:1003780051DE839656DE839E838883864BDE839682
:100388008398838647DE83964CDE838643DE839696
:10039800838883863FDE839644DE839883863ADEAD
:1003A8008396838E838C838A8388838633DE8396C1
:0603B80038DE3080120067
:1003BE00C26A070EC012C08E31C000F00036009027
:1003CE00003600900050C212C28078DFC282C2A2F4
:1003DE0001D0FDD7C4CF01F0006AC3500012000E49
:0603EE000112C290120092
:1003F400086A096A000E076203647FEF02F0025084
:1004040006180A6E075003267E0ED8A010EF02F0DD
:10041400035ED8B083EF02F014EF02F0035ED8A0BD
:1004240087EF02F0028E068E02C00EF001C00BF0C0
:1004340000C00DF000500402F4CF0CF0015005028E
:10044400F4CF00F0F3CF08F00402F3500C26F4507C
:100454000822000E00220D500502F3500C26F45021
:100464000822000E002202500402F3500826F45021
:10047400002202500502016A000E0122F3500026F8
:10048400F45001220D500602F3500826F4500022C5
:10049400026A000E012202220B500602F3500026CB
:1004A400F4500122000E02220E500602F3500126DF
:1004B400F450022202BE67EF02F00836003601361D
:1004C40002360306D8B487EF02F07AEF02F0D88040
:1004D400800E08640030000E002201220222D8A0FF
:1004E4007AEF02F0023201320032034A83EF02F063
:1004F4000AAE029E000E89EF02F0010EA6DD89EF1E
:1005040002F0020E32DE89EF02F0040E13DE120056
:100514000B6A0350D8B4D0EF02F002500A6E028E78
:100524008E0E035E03AED4EF02F0036C080E035C80
:10053400D8A0AFEF02F0036E013602C001F0026AE8
:10054400080E035CD8A0AFEF02F0036E0136016A17
:100554000350D8A4D890B9EF02F00350D8B4B9EF3F
:1005640002F0D89002320132032EB3EF02F00BBC3A
:1005740001A0C6EF02F0D8A0C6EF02F0012AD8B459
:10058400022A02BEE3EF02F00AAEE8EF02F0021E16
:10059400011E012AD8B4022AE8EF02F0026A016AB5
:1005A400E8EF02F00B800BAEECEF02F0026A0AAE49
:1005B400ECEF02F0FF0E026E016E0A360232ECEF2F
:1005C40002F0010E0C6EC3DDEEEF02F0000E0C6EB5
:1005D400EEEF02F0FF0E0C6E0150006E0250016E41
:0205E400120003
:1005E600E80E046E030E056E2EC000F02FC001F05B
:1005F600CDDD300E00242D6E640E046E000E056EE9
:100606002EC000F02FC001F0C1DD0A0E046E000EF0
:10061600056EBCDD08C000F009C001F0300E0024F4
:100626002C6E0A0E046E000E056E2EC000F02FC052
:1006360001F0ACDD0A0E00142A6E300E2A260A0ED0
:10064600046E000E056E2EC000F02FC001F09EDD78
:1006560008C000F009C001F0300E00242B6E120015
:100666000FD0800E316E19D0C00E316E16D0940E9A
:10067600316E13D0D40E316E10D0800E316E0DD087
:100686003150010AEEE03150020AEEE03150030A21
:10069600EEE03150040AEEE0F0D73204006E31503D
:1006A600002600C031F000C037F005DD3090356A15
:1006B60035503324E96E000E3420EA6EEE520BE01C
:1006C60035503324E96E000E3420EA6EEECF36F054
:0A06D60057DD352AEDD73080120001
:1006E0000FD0800E316E19D0C00E316E16D0940E20
:1006F000316E13D0D40E316E10D0800E316E0DD00D
:100700003150010AEEE03150020AEEE03150030AA6
:10071000EEE03150040AEEE0F0D73204006E3150C2
:10072000002600C031F0308000C037F0C7DC3090C8
:0A07300033C037F0C3DC3080120044
:10073A0026EC04F09390819096908490F0DD0C0E54
:10074A00376EB7DC010E376EB4DC070EB46E010EDD
:10075A00316E30DE00C026F001C027F0B8DD1A0E77
:10076A00046E670E056E1C0E066E810E076E3DDE68
:10077A00CCDE00C02EF001C02FF030DF010E316E4A
:10078A00010E326E2DC033F0A6DF2CC036F0F6DC37
:10079A002AC036F0F3DC2E0E366EF0DC2BC036F0B3
:1007AA00EDDC010E316E070E326E280E336E000E2E
:1007BA00346E54DFDF0E366EE1DC070E0B6E170E59
:1007CA000C6E6A0E0D6E0D2EFED70C2EFCD70B2E5C
:1007DA00FAD70000800E2F18006E800E010A005C06
:1007EA0002E1900E2E5C0BE38190020E316E010E37
:1007FA00326E1E0E336E000E346E30DF8490800E21
:10080A002F18006E800E010A005C02E18B0E2E5C2E
:10081A000BE281808480020E316E010E326E150E5B
:0C082A00336E000E346E1ADF92D7FFD739
:10084C0010EE15F0150E006E010E016E360EF66EE2
:0E085C00080EF76E000EF86E8CEC01F0120024
:090836004953494E49594F520043
:08083F00534F4755594F520079
:020847000000AF
:0208490043006A
:020000040030CA
:0E000000240E1F1EFF8381FF0FC00FE00F4074
:00000001FF
